:020000040800F2
:1000000000100020750D0008710D00086F0D00082C
:1000100000000000000000000000000000000000E0
:10002000000000000000000000000000710D00084A
:100030000000000000000000710D0008710D0008B4
:100040006F0D00086F0D00086F0D00086F0D0008A0
:100050006F0D00086F0D00086F0D00086F0D000890
:100060006F0D00086F0D00086F0D00086F0D000880
:100070006F0D00086F0D00086F0D00085103000898
:100080006F0D00086F0D00086F0D00086F0D000860
:100090006F0D00086F0D00086F0D0008A903000820
:1000A0006F0D00086F0D00086F0D0008E9000008D3
:1000B0006F0D00086F0D00086F0D00086F0D000830
:1000C00070B50600017800290AD00024054D89B2D8
:1000D000280000F086FD0134E4B2315D0029F6D13C
:1000E00070BDC0460038014010B5184B1B689B0618
:1000F0001ED5174B1B689B061AD5144800F07FFDD0
:10010000C0B2144A11784B1CDBB21370124A50541F
:100110000021D1540D2806D1104B1B6810009847C0
:1001200000220C4B1A70094A116880230B4313609C
:10013000064B1B681B0608D5054B1B681B0604D520
:10014000024A136880218B43136010BD00380140C0
:100150001C3801401400002020000020180000205E
:10016000F0B587B005000F00002822D0002600E07F
:1001700026000A21280000F0E1FE303101AB99553C
:10018000741CE4B20A21280000F052FE051EEFD1D3
:10019000002C0ED0631E01AA944663443A00A11EAF
:1001A0008E1B664419781170013B0132B342F9D1BC
:1001B00002E030233B70012400233B5507B0F0BD23
:1001C00000B587B001A9FFF7CBFF01A8FFF778FFC3
:1001D00007B000BDF0B5474680B480460024084F04
:1001E000084EE519A05943465843642100F0AAFE81
:1001F00028600434842CF4D104BC9046F0BDC04681
:100200002C0000201C11000870B54A4B1A684A4B9C
:100210001B689A4206D1494B1B68002B02D0002272
:10022000464B1A60454A106842490B68C3180B6078
:100230001268434B1B68D31803D58033404A1360C0
:1002400007E07F2B02DC3E4A136002E0803B3C4A21
:1002500013603B4B1B685811C1B2DA17D20E9B18C2
:100260001F2423409B1A2022D21AD2B2C0072DD5B8
:100270003448E03423409B00C45C9200855C012933
:1002800011D19026F605300000F0BAFB02213000B3
:1002900000F0B8FB0821300000F0B4FB1021300062
:1002A00000F0AEFB40E09026F6050121300000F0A2
:1002B000A9FB0221300000F0A3FB0821300000F070
:1002C0009FFB1021300000F09DFB2DE01D489200A7
:1002D000845CFF2213409B00C55C002912D190264C
:1002E000F6050131300000F08BFB0221300000F0F8
:1002F00089FB0821300000F083FB1021300000F062
:1003000081FB11E09026F6050121300000F07AFB18
:100310000221300000F074FB0821300000F072FB75
:100320001021300000F06CFB074B1D60074B1C6078
:1003300070BDC046B000002004000020D0000020A6
:10034000E80000202C000020340400403804004065
:1003500010B502218020C00500F0A4FB002819D0B0
:100360008024E4050221200000F0A3FB200000F01F
:10037000C9FB094B1860094B1B68C218084B1A606F
:100380000021200000F0ABFB064B1B68002B01D0C6
:10039000FFF73AFF10BDC046C0000020BC0000209F
:1003A000C4000020D000002010B55A4B1B681A076B
:1003B0001BD5DB0306D50022574B1A70574A584B02
:1003C0001A600CE00123544A13700021554A117041
:1003D0005549564A11604F4A11680B431360544AFD
:1003E000116808230B43136093E05A071BD54D4B4C
:1003F0001B78DBB2092B00D98BE04E4800F032FCB1
:10040000484B1B78002B02D14B4B187005E0454B35
:100410001B78454AD318013B1870424A13780133C0
:10042000DBB2137075E09A0708D53D4A1368591C72
:1004300011601B78DBB2414A13606AE09A0661D50D
:100440003C4800F0FBFB3A4A116820230B43136041
:10045000314B1B78002B5CD0374B1B78DBB2442B25
:1004600057D89B00364AD3589F46364B1A682B4BB9
:100470001A604EE02D4B1B681A68324B1A6048E038
:100480002A4B1B681A68304B1A6042E02E4B1A68E0
:10049000224B1A603DE0254B1B681B682B4803600C
:1004A0000168CA17531ADA0FC90F531A284A12687B
:1004B0005343284A13600368DA179B1853401B0400
:1004C0001B0C254A136024E0184B1B681B68DA17C5
:1004D0009B1853401E4A13601BE0144B1B681A689C
:1004E0001E4B1A6019688020C00500F0F4FA10E075
:1004F0000E4B1B681868FFF76DFE0AE00122184BCF
:100500001A7006E0DB0604D5094A116810230B4374
:10051000136010BD18540040CD000020C80000201A
:10052000B8000020CC000020D4000020EC00002007
:100530001C54004000540040F000002028540040AB
:10054000A0110008B000002004000020E0000020FE
:10055000B4000020D0000020BC00002008000020D3
:100560001C000020F0B5474680B41820FFF732FE8B
:1005700000F014FA8D4800F0C7FA8D4800F0C4FA74
:100580008C4800F0C1FA8C4800F0BEFA9025ED05C9
:100590001F2300220121280000F037FA874B002298
:1005A0000221280000F031FA04220121280000F085
:1005B00049FAC0220121280000F044FA804C96211B
:1005C0008901200000F0D0FA0821200000F0D8FABC
:1005D0000021200000F0EAFA0021200000F0DEFAFD
:1005E0000821200000F0EAFA0021200000F0ECFAD7
:1005F000200000F0F1FA734800F086FA172000F0AE
:1006000001FC714C200000F0BBF9C026F60033005D
:1006100000220221280000F0F8F93200042128000D
:1006200000F010FA200000F0F3FA200000F00BFBBD
:10063000200000F01BFB0021200000F01FFB08221F
:100640000021200000F064FB200000F04DFB2000A2
:1006500000F052FB5D4B1978200000F0F9FA5C4A7B
:100660001368802109020B4313603E21200000F033
:100670004BFB200000F0E2FAE020800000F044FA9A
:100680000F2000F0BFFB8026B600300000F04AFAD1
:10069000504B19688024E405200000F01CFA20006B
:1006A00000F00AFA200000F00CFA4B49200000F09C
:1006B00014FAFA2292000021200000F010FA200023
:1006C00000F004FA0221200000F0E8F9434A002477
:1006D0001460434B1E60434B1C600121424B196068
:1006E000424E33686820804603433360404B1F68A6
:1006F0000F431F603F4F3C603768D020C001074365
:1007000037601F6810263E431E603B4E34603B4EF0
:100710003768404638433060186880267601304399
:100720001860374B1C601068802303431360136804
:100730000B431360334B1960280000F061F9082166
:10074000280000F05DF90221280000F05BF910217B
:10075000280000F057F92C4A2C4B1A602C4B1C60D7
:100760002C4B98462C4F2D4E43461B78002B13D014
:100770002B4D00242000FFF723FD3800FFF7A0FCDD
:1007800001CDFFF71DFD3000FFF79AFC0134212C4D
:10079000F0D100221F4B1A70224B1A88002AE3DD89
:1007A0000023C04601339342FBDBDDE781030000F9
:1007B00091020000920200000E030000C406000037
:1007C0000038014095030000005400400200002062
:1007D0000854004008000020FFFF00000004004013
:1007E0002C04004028040040140400401804004079
:1007F0002004004034040040380400401C04004041
:1008000040040040B4000020DCFF0000BC000020D9
:10081000D00000201C000020B8120008B41200080C
:100820002C0000200000002000B5002306281AD864
:10083000012200F0F3FA06080A0E141204000B4B12
:1008400004E00A4B0CE00A4B0AE0094B1B685B0C06
:1008500008E0074B1B685B0E04E0064B00E0064B0C
:100860001B685B081340180000BDC04634100240EE
:1008700000100240201002402410024010B5040075
:100880002000FFF7D1FF0028FAD010BD00B50628E0
:100890001CD800F0C3FA06080A15110F04000C4A10
:1008A00004E00B4A09E00B4A07E00A4A802113687A
:1008B000490209E0084A00E0084A1368012103E000
:1008C0008021044A490413680B43136000BDC046ED
:1008D0003410024000100240201002402410024058
:1008E000013800B505281AD800F098FA03080E1947
:1008F000191403210A4A13688B430FE00321084AA5
:1009000013688B43023908E00321054A13688B43BF
:10091000013902E00321024A13680B43136000BD52
:1009200004100240034A044B11680B401843106046
:100930007047C04604100240FFFFC3FF034A044B48
:10094000116800040B401843106070470410024007
:10095000FFFFFEFF034A044B11680B401843106071
:100960007047C04604100240FFF8FFFFF021034A21
:1009700013688B43184310607047C0460410024050
:10098000044B984204D11021034A13688B4313602F
:100990007047C046005400403010024010B501209E
:1009A000FFF774FF0120FFF769FF0120FFF798FFB1
:1009B0000020FFF7DBFF0020FFF7CCFF00F0C2F8BC
:1009C000012000F0C7F8A0208003FFF7ABFF002054
:1009D000FFF7B4FF0320FFF759FF0320FFF74EFF97
:1009E0000320FFF77DFF034B034A1360034A1360A4
:1009F00010BDC046006CDC02100000200C0000207E
:100A000081617047090481617047F7B50025009145
:100A10000468C1680193019E01232E411E420BD040
:100A200003266F00BE40F643344031401600009B61
:100A3000BE40BB4031431C430135102DEBD1046057
:100A4000C160F7BDF7B500250F27046A436A01921C
:100A5000019E01222E41164206D03A00AE00B2405D
:100A600094430A00B24014430135082DF0D100250B
:100A70000F272E00019A0836324116000122164235
:100A800006D03A00AE00B24093430A00B24013438E
:100A90000135082DEDD104624362F7BDC3681943E7
:100AA000C1607047036919400800411E8841C0B207
:100AB0007047C94301617047802203689343036014
:100AC000704708220368934303607047012203685C
:100AD00013430360704781627047C162704700B57D
:100AE000030006290DD8080000F098F9040B060B46
:100AF000080B0A005A6304E09A6302E0DA6300E03C
:100B00001A6400BD406A7047054A43099B181F22BA
:100B100010401E3A824019680A431A607047C04666
:100B200000100240064A43099B181F2210401E3A3B
:100B30008240196811431960196891431960704720
:100B4000001002401021024A13680B4313607047E3
:100B5000002002400721034A13688B4318431060AA
:100B60007047C04600200240044B10B51B680400CB
:100B70004808C01800F05CF9E06010BD10000020CB
:100B8000082903D10268044B134003E08022036864
:100B90005201134303607047FFEFFFFF4268024BAF
:100BA0001340194341607047FFCFFFFF0268024BBB
:100BB0001340194301607047FFF9FFFF0C220368DF
:100BC00093431943016070478268024B13401943F5
:100BD00081607047FFFCFFFF01220368134303603D
:100BE000704770B50D00040000F00DF829002000DA
:100BF00000F001F870BDC905C90D81627047406AF7
:100C0000C005C00D70478023C2691A42FCD07047EE
:100C1000064B10B5984204D0054B984204D10548C4
:100C200000E00548FFF77EFF10BDC04600540040BD
:100C3000005800401602000015020000012203685F
:100C400013430360704701220368934303607047B6
:100C5000490081608268024B134083607047C04640
:100C6000FFFBFFFF406AC0B2704700000268024B02
:100C7000134003607047C046FFEFFFFF0268034B5D
:100C800009021340194301607047C046FFF0FFFF9F
:100C9000036909071B011B09194301617047000023
:100CA0000269034B09051340194301617047C046AF
:100CB000FFFF0FFF0269034B090413401943016151
:100CC0007047C046FFFFF0FF0269034B0902134063
:100CD000194301617047C046FF00FFFFFF2203690F
:100CE00093431943016170470268024B134003604C
:100CF0007047C046FFFFFDFF4268024B1340436050
:100D00007047C046FFF7FFFF036819430160704753
:100D100010B50400012914D0022927D09208013A05
:100D2000D1B2FFF7B5FF13212000FFF7D7FF0F2146
:100D30002000FFF7C9FF02212000FFF7BBFF0421BD
:100D400011E0D208013AD1B2FFF7A2FF0921200039
:100D5000FFF7C4FF03212000FFF7B6FF03212000A7
:100D6000FFF7A8FF03212000FFF79AFF10BDFEE761
:100D700070470000002270B51748184D1849131825
:100D800054198B4203D2246804321C60F7E7002117
:100D9000144A934202D219600433FAE78021124ABE
:100DA00089001368114C0B431360114B9C4202D213
:100DB00008CC9847F9E70F4C0F4B9C4202D208CC65
:100DC0009847F9E7FFF7CEFB0C4C0D4B9C4202D243
:100DD00008CC9847F9E770BD00000020BC1200085D
:100DE00014000020F400002014ED00E0BC12000804
:100DF000BC120008BC120008BC120008BC1200089B
:100E0000BC1200084309044A9B009B181F22104093
:100E10001E3A82401A60704700E100E002B4714659
:100E200049084900095C49008E4402BC7047C0462D
:100E3000002243088B4274D303098B425FD3030A19
:100E40008B4244D3030B8B4228D3030C8B420DD32C
:100E5000FF22090212BA030C8B4202D312120902BA
:100E600065D0030B8B4219D300E0090AC30B8B42F8
:100E700001D3CB03C01A5241830B8B4201D38B03A6
:100E8000C01A5241430B8B4201D34B03C01A52414B
:100E9000030B8B4201D30B03C01A5241C30A8B428E
:100EA00001D3CB02C01A5241830A8B4201D38B0279
:100EB000C01A5241430A8B4201D34B02C01A52411D
:100EC000030A8B4201D30B02C01A5241CDD2C3098F
:100ED0008B4201D3CB01C01A524183098B4201D30B
:100EE0008B01C01A524143098B4201D34B01C01AF6
:100EF000524103098B4201D30B01C01A5241C3086E
:100F00008B4201D3CB00C01A524183088B4201D3DC
:100F10008B00C01A524143088B4201D34B00C01AC8
:100F20005241411A00D20146524110467047FFE734
:100F300001B5002000F0F0F802BDC0460029F7D04E
:100F400076E7704703460B437FD4002243088B4269
:100F500074D303098B425FD3030A8B4244D3030B40
:100F60008B4228D3030C8B420DD3FF22090212BA05
:100F7000030C8B4202D31212090265D0030B8B4281
:100F800019D300E0090AC30B8B4201D3CB03C01A6B
:100F90005241830B8B4201D38B03C01A5241430B46
:100FA0008B4201D34B03C01A5241030B8B4201D336
:100FB0000B03C01A5241C30A8B4201D3CB02C01AA1
:100FC0005241830A8B4201D38B02C01A5241430A19
:100FD0008B4201D34B02C01A5241030A8B4201D308
:100FE0000B02C01A5241CDD2C3098B4201D3CB01AF
:100FF000C01A524183098B4201D38B01C01A52415E
:1010000043098B4201D34B01C01A524103098B4261
:1010100001D30B01C01A5241C3088B4201D3CB004C
:10102000C01A524183088B4201D38B00C01A52412F
:1010300043088B4201D34B00C01A5241411A00D2DF
:1010400001465241104670475DE0CA0F00D0494248
:10105000031000D34042534000229C4603098B42B8
:101060002DD3030A8B4212D3FC22890112BA030A40
:101070008B420CD3890192118B4208D389019211C2
:101080008B4204D389013AD0921100E08909C30947
:101090008B4201D3CB01C01A524183098B4201D349
:1010A0008B01C01A524143098B4201D34B01C01A34
:1010B000524103098B4201D30B01C01A5241C308AC
:1010C0008B4201D3CB00C01A524183088B4201D31B
:1010D0008B00C01A5241D9D243088B4201D34B0036
:1010E000C01A5241411A00D20146634652415B1078
:1010F000104601D34042002B00D549427047634659
:101100005B1000D3404201B5002000F005F802BD9D
:101110000029F8D016E770477047C046000000006D
:10112000320000006400000096000000C8000000CB
:10113000F9000000290100005901000088010000A9
:10114000B6010000E30100000E02000039020000B9
:10115000620200008A020000B0020000D402000017
:10116000F7020000180300003603000053030000DC
:101170006E030000870300009E030000B20300001E
:10118000C4030000D4030000E1030000EC030000EE
:10119000F5030000FB030000FF0300000004000053
:1011A00012050008120500086A040008740400080B
:1011B000800400088C04000896040008C804000895
:1011C000DA040008F00400081205000812050008FF
:1011D0001205000812050008120500081205000893
:1011E0001205000812050008120500081205000883
:1011F0001205000812050008120500081205000873
:101200001205000812050008120500081205000862
:101210001205000812050008120500081205000852
:101220001205000812050008120500081205000842
:101230001205000812050008120500081205000832
:101240001205000812050008120500081205000822
:101250001205000812050008120500081205000812
:101260001205000812050008120500081205000802
:1012700012050008120500081205000812050008F2
:1012800012050008120500081205000812050008E2
:1012900012050008120500081205000812050008D2
:1012A00012050008120500081205000812050008C2
:0C12B000FC0400080D0A00002D000000E6
:1012BC0032003200FFFFFF00E803000000127A004A
:0412CC0000127A0092
:0400000508000D756D
:00000001FF
