:020000040800F2
:1000000000100020DD0E0008D90E0008D70E0008F1
:1000100000000000000000000000000000000000E0
:10002000000000000000000000000000D90E0008E1
:100030000000000000000000D90E0008D90E0008E2
:10004000D70E0008D70E0008D70E0008D70E0008FC
:10005000D70E0008D70E0008D70E0008D70E0008EC
:10006000D70E0008D70E0008D70E0008D70E0008DC
:10007000D70E0008D70E0008D70E000809020008A6
:10008000D70E0008D70E0008D70E0008D70E0008BC
:10009000D70E0008D70E0008D70E0008610200082E
:1000A000D70E0008D70E0008D70E0008B9060008C2
:1000B000D70E0008D70E0008D70E0008D70E00088C
:1000C00070B54A4B1A684A4B1B689A4206D1494B95
:1000D0001B68002B02D00022464B1A60434A10686E
:1000E000444B1968411811601A68434B1B68D318B8
:1000F00003D5803340490B6007E07F2B02DC3E4A8A
:10010000136002E0803B3C490B603B4B1B68D917F6
:10011000C90ECB185A11D0B21F2423405B1A2021DC
:10012000C91AC9B2D4072ED5344AFF2423409B00F4
:10013000D45C8900555C012812D19026F605301C4C
:10014000012100F0E5FB301C022100F0E3FB301C34
:10015000082100F0DFFB301C102100F0D9FB40E04B
:100160009026F605301C012100F0D4FB301C022142
:1001700000F0CEFB301C082100F0CAFB301C10211F
:1001800000F0C8FB2DE01D4A8900545CFF210B40A4
:100190009B00D55C002812D19026F605301C012169
:1001A00000F0B6FB301C022100F0B4FB301C08212B
:1001B00000F0AEFB301C102100F0ACFB11E09026EB
:1001C000F605301C012100F0A5FB301C022100F0D7
:1001D0009FFB301C082100F09DFB301C102100F01B
:1001E00097FB074B1D60074B1C6070BD3000002063
:1001F0000400002058000020240000206C1000089B
:10020000340400403804004010B58020C0050221AD
:1002100000F0D0FB002819D08024E405201C022126
:1002200000F0CFFB201C00F032FD094B1860094B99
:100230001A688218084B1A60201C002100F014FD77
:10024000064B1B68002B01D0FFF73AFF10BDC046DC
:10025000480000203C0000205400002058000020EE
:1002600008B54C4B1B681A071DD5DA0308D50023C7
:10027000494A137049494A4A11604A4A13700CE0CE
:100280000122454B1A700021474B19704749484BD2
:100290001960404B19680A431A60464B19680822D6
:1002A0000A431A6075E05A071AD53F4B1B78DBB238
:1002B000092B6ED8404800F089FD3B4B1B78002B82
:1002C00002D13E4B187005E0374B1B78374AD318E4
:1002D000013B1870344B1A780132D2B21A7058E0D0
:1002E0009A0708D52E4A1368591C11601A78D2B2A1
:1002F000334B1A604DE09A0644D52F4800F052FD6A
:100300002C4B196820220A431A60234B1B78002BC0
:100310003FD02A4B1B78DBB2072B3AD89B00294AE7
:10032000D3589F46284B1A681C4B1A6031E0204B6B
:100330001B681A68244B1A602BE01D4B1B681A6857
:10034000224B1A6025E0214B1A68144B1A6020E0FA
:10035000174B1B681A681E4B1A601A68D117891A46
:10036000C90FD20F8A1A1B490A601A68D317D2180C
:100370005A40194B1A600CE00D4B1B681A68174B5A
:100380001A6006E0DA0604D50A4B196810220A43FF
:100390001A6008BD185400405000002040000020A2
:1003A00038000020450000204400002060000020AC
:1003B000740000201C5400400054004078000020CD
:1003C000285400404C100008300000200400002099
:1003D0006C000020580000203C0000203400002069
:1003E000F8B54F464646C0B400F060FA994800F0B0
:1003F00051FC994F381C00F04DFC984800F04AFC25
:10040000974800F047FC9025ED05281C01210022AB
:100410001F2300F082FA281C02210022914B00F0D9
:100420007CFA281C0121042200F094FA281C0121E6
:10043000C02200F08FFAC026F600281C0421321CCE
:1004400000F088FA884C201C9621890100F052FCAB
:10045000201C082100F05AFC201C002100F06CFC3C
:10046000201C002100F060FC201C082100F06CFC26
:10047000201C002100F06EFC201C00F073FC7B4867
:1004800000F008FC381C00F005FC172000F06EFDA1
:10049000774C201C00F0FCF9281C02210022331CA0
:1004A00000F03BFA281C0421321C00F053FA201CF7
:1004B00000F062FC201C00F07AFC201C00F08AFC9A
:1004C000201C002100F08EFC201C0021082200F0DE
:1004D000D3FC201C00F0BCFC201C00F0C1FC201C44
:1004E000322100F069FC634B1968802212020A4332
:1004F0001A60201C3E2100F0BBFC201C00F052FCC6
:10050000E020800000F0C6FB0F2000F02FFD8024CB
:10051000E405201C00210022002300F055FAFA26F1
:10052000B600201C311C00F06AFA201C00F058FABA
:10053000201C00F05AFA201C4F4900F062FA201CDF
:10054000002100F067FB201C022100F063FB201C4F
:10055000042100F05FFB201C062100F05BFB201C47
:10056000002100F051FA201C002100F033FB201C78
:10057000002100F069FA201C0021002200F084FA1A
:10058000201C0021321C00F06FFB201C00F028FA18
:10059000201C00F02FFA201C022100F007FA374A35
:1005A0000021116080208000354B1860354B1960A8
:1005B0000124354B1C60354803686826B146334337
:1005C0000360334B1F6827431F60324F3960066852
:1005D000B046D027FE014746374307601F6810200A
:1005E000384318602C4801602C4807684E463E434B
:1005F00006601E688020400130431860284B196057
:10060000116880230B431360136823431360254B49
:100610001C60281C012100F07BF9281C082100F037
:1006200077F9281C022100F075F9281C102100F030
:1006300071F91D4A1D4B1A601D4B1C601D4B1A8819
:100640000023002101E0C04601339342FBDB0B1C79
:10065000FBE7C04681030000910200009202000007
:100660000E030000C406000000380140950300009E
:100670000054004008540040FFFF00000004004008
:100680002C040040280400401404004018040040DA
:100690002004004034040040380400401C040040A2
:1006A0004004004034000020DCFF00003C0000203B
:1006B000580000200000002008B5194B1B689A065E
:1006C00020D5184B1B689A061CD5154800F04FFB27
:1006D000C0B2154B1870154A11784B1CDBB2137061
:1006E000134A50540021D1540D2806D1114B1B68D8
:1006F000101C984700220D4B1A70094B1968802274
:100700000A431A60064B1B681A0608D5054B1B687E
:100710001A0604D5024B1A6880218A431A6008BD64
:10072000003801401C38014008000020180000205B
:100730007C0000201C00002000B5002306281AD8E9
:10074000012200F029FC06080A0E141204000B4BCB
:1007500004E00A4B0CE00A4B0AE0094B1B685B0CF7
:1007600008E0074B1B685B0E04E0064B00E0064BFD
:100770001B685B081340180000BDC04634100240DF
:1007800000100240201002402410024010B5040066
:100790002000FFF7D1FF0028FAD010BD00B50628D1
:1007A0001CD800F0F9FB06080A15110F04000C4ACA
:1007B00004E00B4A09E00B4A07E00A4A802113686B
:1007C000490209E0084A00E0084A1368012103E0F1
:1007D0008021044A490413680B43136000BDC046DE
:1007E0003410024000100240201002402410024049
:1007F000013800B505281AD800F0CEFB03080E1901
:10080000191403210A4A13688B430FE00321084A95
:1008100013688B43023908E00321054A13688B43B0
:10082000013902E00321024A13680B43136000BD43
:1008300004100240034A044B11680B401843106037
:100840007047C04604100240FFFFC3FF034A044B39
:10085000116800040B4018431060704704100240F8
:10086000FFFFFEFF034A044B11680B401843106062
:100870007047C04604100240FFF8FFFFF021034A12
:1008800013688B43184310607047C0460410024041
:10089000044B984204D11021034A13688B43136020
:1008A0007047C046005400403010024010B501208F
:1008B000FFF774FF0120FFF769FF0120FFF798FFA2
:1008C0000020FFF7DBFF0020FFF7CCFF00F000FA6D
:1008D000012000F005FAA0208003FFF7ABFF002005
:1008E000FFF7B4FF0320FFF759FF0320FFF74EFF88
:1008F0000320FFF77DFF034B034A1360034A136095
:1009000010BDC046006CDC02100000200C0000206E
:1009100081617047090481617047F7B50025009136
:100920000468C1680193019E01232E411E420BD031
:1009300003266F00BE40F643344031401600009B52
:10094000BE40BB4031431C430135102DEBD1046048
:10095000C160F7BDF7B500250F27046A436A01920D
:10096000019E01222E41164206D03A00AE00B2404E
:1009700094430A00B24014430135082DF0D10025FC
:100980000F272E00019A0836324116000122164226
:1009900006D03A00AE00B24093430A00B24013437F
:1009A0000135082DEDD104624362F7BDC3681943D8
:1009B000C1607047036919400800411E8841C0B2F8
:1009C0007047C9430161704730B50568034C1A434D
:1009D0002C4011432143016030BDC0468FFCFFFF16
:1009E000802203689343036070470822036893439F
:1009F00003607047012203681343036070478162FC
:100A00007047C1627047000000B50300062917D87F
:100A1000080000F0C1FA041508150D151100802119
:100A20009A698A4302E09969064A0A409A6107E096
:100A30008021DA698A4302E0D969024A0A40DA6110
:100A400000BDC046FF7FFFFF00B50300062917D891
:100A5000080000F0A1FA041508150D151100042175
:100A60009A698A4302E09969064A0A409A6107E056
:100A70000421DA698A4302E0D969024A0A40DA614C
:100A800000BDC046FFFBFFFF00B50300062900D9EB
:100A90009AE0080000F080FA04982A984F987200B3
:100AA00003209969814399619969996170219869D5
:100AB00088439861072A00D986E010009A6900F0FF
:100AC0006BFA0604080A0C0E101210210A439A61F0
:100AD0007AE02021FAE73021F8E74021F6E75021BB
:100AE000F4E76021F2E7114399616DE098693749B5
:100AF0000140996199699961986935490140996105
:100B0000072A61D810009A6900F03CFAE10407094D
:100B10000C0E101280214901D8E7802100E0C0218D
:100B20008901D3E7802104E0A02102E0C02100E098
:100B3000E021C901CAE70320D9698143D961D96994
:100B4000D9617021D8698843D861072A3CD8100040
:100B5000DA6900F021FA380406080A0C0E10102198
:100B600030E020212EE030212CE040212AE05021ED
:100B700028E0602126E01143D96125E0D8691349B6
:100B80000140D961D969D961D86911490140D96158
:100B9000072A19D81000DA6900F0FEF915040709D0
:100BA0000C0E1012802149010CE0802100E0C021D0
:100BB000890107E0802104E0A02102E0C02100E0DB
:100BC000E021C9010A43DA6100BDC046FFFCFFFF16
:100BD000FF8FFFFF00B50300062917D8080000F0BB
:100BE000DBF9041508150D15110008219A698A43CF
:100BF00002E09969064A0A409A6107E00821DA6929
:100C00008A4302E0D969024A0A40DA6100BDC0465F
:100C1000FFF7FFFF00B5030006291DD8080000F00C
:100C2000BBF9041007130A170D001A6A01210DE021
:100C30001A6A10210AE0196A084A0BE0196A084A80
:100C400008E01A6A042101E040211A6A8A4302E09E
:100C5000196A044A0A401A6200BDC046FFFEFFFF3F
:100C6000FFEFFFFFFFFBFFFF00B5030006290DD8D4
:100C7000080000F091F9040B060B080B0A005A63F8
:100C800004E09A6302E0DA6300E01A6400BD406A9F
:100C900070470000054A43099B181F2210401E3A66
:100CA000824019680A431A607047C046001002402B
:100CB000064A43099B181F2210401E3A82401968B9
:100CC0001143196019689143196070470010024080
:100CD0001021024A13680B43136070470020024042
:100CE0000721034A13688B43184310607047C046BE
:100CF00000200240044B10B51B6804004808C018CF
:100D000000F054F9E06010BD10000020082903D164
:100D10000268044B134003E080220368520113432E
:100D200003607047FFEFFFFF4268024B1340194317
:100D300041607047FFCFFFFF0268024B1340194329
:100D400001607047FFF9FFFF0C22036893431943CA
:100D5000016070478268024B1340194381607047FD
:100D6000FFFCFFFF01220368134303607047406AE2
:100D7000C005C00D70470000064B10B5984204D066
:100D8000054B984204D1054800E00548FFF790FF65
:100D900010BDC0460054004000580040160200003C
:100DA000150200000122036813430360704701220B
:100DB0000368934303607047490081608268024B77
:100DC000134083607047C046FFFBFFFF406AC0B21C
:100DD000704700000268024B134003607047C04632
:100DE000FFEFFFFF0268034B090213401943016044
:100DF0007047C046FFF0FFFF036909071B011B098D
:100E000019430161704700000269034B0905134053
:100E1000194301617047C046FFFF0FFF0269034B92
:100E200009041340194301617047C046FFFFF0FFFA
:100E30000269034B09021340194301617047C04620
:100E4000FF00FFFFFF2203699343194301617047CD
:100E50000268024B134003607047C046FFFFFDFF6E
:100E60004268024B134043607047C046FFF7FFFFE4
:100E7000036819430160704710B50400012914D0BC
:100E8000022927D09208013AD1B2FFF7B5FF13210A
:100E90002000FFF7D7FF0F212000FFF7C9FF022135
:100EA0002000FFF7BBFF042111E0D208013AD1B2C4
:100EB000FFF7A2FF09212000FFF7C4FF0321200054
:100EC000FFF7B6FF03212000FFF7A8FF0321200052
:100ED000FFF79AFF10BDFEE770470000002270B5D3
:100EE0001748184D1849131854198B4203D2246817
:100EF00004321C60F7E70021144A934202D21960C1
:100F00000433FAE78021124A89001368114C0B431D
:100F10001360114B9C4202D208CC9847F9E70F4C62
:100F20000F4B9C4202D208CC9847F9E7FFF758FADA
:100F30000C4C0D4B9C4202D208CC9847F9E770BD8F
:100F400000000020F010000814000020B000002075
:100F500014ED00E0F0100008F0100008F010000898
:100F6000F0100008F0100008F01000084309044ACF
:100F70009B009B181F2210401E3A82401A60704747
:100F800000E100E002B471464908490009564900F1
:100F90008E4402BC7047C04602B4714649084900FD
:100FA000095C49008E4402BC7047C046002934D019
:100FB0000123002210B488422CD301242407A1422B
:100FC00004D2814202D209011B01F8E7E400A142E8
:100FD00004D2814202D249005B00F8E7884201D383
:100FE000401A1A434C08A04202D3001B5C0822435B
:100FF0008C08A04202D3001B9C082243CC08A042CC
:1010000002D3001BDC082243002803D01B0901D0B7
:101010000909E3E7101C10BC7047002801D000202C
:10102000C04307B4024802A14018029003BDC04665
:10103000190000000029F0D003B5FFF7B9FF0EBC7E
:101040004243891A1847C0467047C04692030008B9
:1010500092030008240300082E0300083A03000846
:101060004603000850030008780300080000000051
:101070000D000000190000002500000032000000F3
:101080003E0000004A000000560000006200000020
:101090006D00000078000000830000008E0000005A
:1010A00098000000A2000000AB000000B4000000A7
:1010B000BD000000C5000000CD000000D40000000D
:1010C000DB000000E1000000E7000000EC00000091
:1010D000F0000000F4000000F7000000FA0000003B
:1010E000FC000000FD000000FE000000FF0000000A
:1010F00032000000FFFFFF004100000000127A00F4
:0411000000127A005F
:0400000508000EDD04
:00000001FF
