:020000040800F2
:1000000000100020090E0008050E0008030E00086D
:1000100000000000000000000000000000000000E0
:10002000000000000000000000000000050E0008B5
:100030000000000000000000050E00080902000892
:10004000030E0008030E0008030E0008030E00084C
:10005000030E0008030E0008030E0008030E00083C
:10006000030E0008030E0008030E0008030E00082C
:10007000030E0008030E0008030E000855030008D5
:10008000030E0008030E0008030E0008030E00080C
:10009000030E0008030E0008030E0008AD0300085D
:1000A000030E0008030E0008030E0008E900000814
:1000B000030E0008030E0008030E0008030E0008DC
:1000C00070B50600017800290AD00024054D89B2D8
:1000D000280000F0D0FD0134E4B2315D0029F6D1F2
:1000E00070BDC0460038014010B5184B1B689B0618
:1000F0001ED5174B1B689B061AD5144800F0C9FD86
:10010000C0B2144A11784B1CDBB21370124A50541F
:100110000021D1540D2806D1104B1B6810009847C0
:1001200000220C4B1A70094A116880230B4313609C
:10013000064B1B681B0608D5054B1B681B0604D520
:10014000024A136880218B43136010BD00380140C0
:100150001C38014018000020240000201C00002052
:10016000F0B587B005000F00002822D0002600E07F
:1001700026000A21280000F04DFF303101AB9955CF
:10018000741CE4B20A21280000F0BEFE051EEFD167
:10019000002C0ED0631E01AA944663443A00A11EAF
:1001A0008E1B664419781170013B0132B342F9D1BC
:1001B00002E030233B70012400233B5507B0F0BD23
:1001C00000B587B001A9FFF7CBFF01A8FFF778FFC3
:1001D00007B000BDF0B5474680B480460024084F04
:1001E000084EE519A05943465843642100F016FF14
:1001F00028600434842CF4D104BC9046F0BDC04681
:100200003000002038120008C046704770B54A4BD5
:100210001A684A4B1B689A4206D1494B1B68002B4F
:1002200002D00022464B1A60454A106842490B68CA
:10023000C3180B601268434B1B68D31803D5803377
:10024000404A136007E07F2B02DC3E4A136002E065
:10025000803B3C4A13603B4B1B685811C1B2DA1714
:10026000D20E9B181F2423409B1A2022D21AD2B2EE
:10027000C0072DD53448E03423409B00C45C920075
:10028000855C012911D19026F605300000F002FCB2
:100290000221300000F000FC0821300000F0FCFBDF
:1002A0001021300000F0F6FB40E09026F605012119
:1002B000300000F0F1FB0221300000F0EBFB0821E0
:1002C000300000F0E7FB1021300000F0E5FB2DE0EE
:1002D0001D489200845CFF2213409B00C55C0029EE
:1002E00012D19026F6050131300000F0D3FB022137
:1002F000300000F0D1FB0821300000F0CBFB1021D2
:10030000300000F0C9FB11E09026F6050121300015
:1003100000F0C2FB0221300000F0BCFB08213000DD
:1003200000F0BAFB1021300000F0B4FB074B1D6059
:10033000074B1C6070BDC046B400002008000020C0
:10034000E0000020F80000203000002034040040CD
:100350003804004010B502218020C00500F0ECFBFD
:10036000002819D08024E4050221200000F0EBFBD6
:10037000200000F011FC094B1860094B1B68C218E3
:10038000084B1A600021200000F0F3FB064B1B68AD
:10039000002B01D0FFF73AFF10BDC046C800002077
:1003A000C0000020CC000020E000002010B56D4B04
:1003B0001B681A071DD5DB0306D500226A4B1A708D
:1003C0006A4A6B4B1A600EE00123674A13700021E2
:1003D000684A1170684A69490A6069490A60614A55
:1003E00011680B431360674A116808230B431360BD
:1003F000B6E05A071BD55F4B1B78DBB2092B00D93F
:10040000AEE0614800F078FC5A4B1B78002B02D11B
:100410005E4B187005E0574B1B78574AD318013BC9
:100420001870544A13780133DBB2137098E09A07BE
:1004300008D54F4A1368591C11601B78DBB2544A27
:1004400013608DE09A0600D483E04F4800F040FC32
:100450004C4A116820230B431360434B1B78002B3D
:100460007ED04A4B1B78DBB2442B79D89B00494A9B
:10047000D3589F46484B1A683C4B1A6070E03F4B7C
:100480001B681A68444B1A606AE03C4B1B681A6888
:10049000424B1A6064E0414B1A68344B1A605FE0CB
:1004A000364B1B681B683E4803600168CA17531A25
:1004B000DA0FC90F531A3B4A126853433A4A136082
:1004C0000368DA179B1853401B041B0C374A136050
:1004D00046E02A4B1B681B68DA179B185340314AC9
:1004E00013603DE0254B1B681B68314C236021687D
:1004F0008020C00500F039FB21682E4800F004FD83
:100500002D4B18602CE01D4B1B681868FFF762FE2E
:1005100026E01B4B1B681868284B186000F06AFE29
:100520000100C3171B1ADB0FC20F9B1A1D4A12686A
:1005300053431D4A1360204B1868CB17C918594004
:1005400000F0E2FC194B18600AE001221C4B1A7003
:1005500006E0DB0604D50B4A116810230B43136039
:1005600010BDC04618540040D9000020D000002023
:10057000BC000020D8000020E4000020FC00002087
:10058000C40000201C540040005400400001002022
:1005900028540040BC120008B400002008000020CD
:1005A000F0000020B8000020E0000020C000002083
:1005B0000C000020006CDC0204000020D4000020AD
:1005C00020000020F0B5474680B41820FFF702FE57
:1005D00000F02EFA984800F0E1FA984800F0DEFAB0
:1005E000974800F0DBFA974800F0D8FA9025ED051F
:1005F0001F2300220121280000F051FA924B002213
:100600000221280000F04BFA04220121280000F00A
:1006100063FAC0220121280000F05EFA8B4C96217B
:100620008901200000F0EAFA0821200000F0F2FA27
:100630000021200000F004FB0021200000F0F8FA67
:100640000821200000F004FB0021200000F006FB40
:10065000200000F00BFB7E4800F0A0FA172000F00D
:100660003DFC7C4C200000F0D5F9C026F60033009C
:1006700000220221280000F012FA32000421280092
:1006800000F02AFA200000F00DFB200000F025FB0E
:10069000200000F035FB0021200000F039FB08228B
:1006A0000021200000F07EFB200000F067FB20000E
:1006B00000F06CFB684B1978200000F013FB674AD0
:1006C0001368802109020B4313603E21200000F0D3
:1006D00065FB200000F0FCFA002000F0E5FB0024A0
:1006E0005F4B1C605F4B1868FA21490100F00CFC5D
:1006F00043011B1A9B00181800F0CEFB00F0E6FB2C
:1007000000F0DCFBE020800000F048FA0F2000F051
:10071000E5FB8027BF00380000F04EFA524B196805
:100720008026F605300000F020FA300000F00EFAC6
:10073000300000F010FA4D49300000F018FAFA22AB
:1007400092000021300000F014FA300000F008FAA6
:100750000221300000F0ECF9454A1460454B1F605F
:10076000454B1C600121454B1960454E336868209C
:10077000804603433360434B1F680F431F60424F63
:100780003C603768D020C001074337601F681026DF
:100790003E431E603D4E34603D4E37684046384310
:1007A000306018688026760130431860394B1C6031
:1007B000106880230343136013680B431360364BA8
:1007C0001960280000F066F90821280000F062F99D
:1007D0000221280000F060F91021280000F05CF9E7
:1007E0002E4A2F4B1A602F4B1C602F4B98462F4FD1
:1007F0002F4E43461B78002B13D02E4D0024200093
:10080000FFF7DEFC3800FFF75BFC01CDFFF7D8FCFB
:100810003000FFF755FC0134212CF0D10022224B8F
:100820001A70254B1A88002AE3DD0023C0460133E5
:100830009342FBDBDDE7C04681030000910200002C
:10084000920200000E030000C406000000380140C0
:1008500095030000005400400200002008540040AE
:1008600018E000E0100000200C000020FFFF000056
:10087000000400402C040040280400401404004000
:1008800018040040200400403404004038040040B4
:100890001C04004040040040B8000020DCFF0000C1
:1008A000C0000020E000002020000020D413000839
:1008B000D0130008300000200000002000B5002305
:1008C00006281AD8012200F015FB06080A0E141299
:1008D00004000B4B04E00A4B0CE00A4B0AE0094B06
:1008E0001B685B0C08E0074B1B685B0E04E0064BC3
:1008F00000E0064B1B685B081340180000BDC046B3
:100900003410024000100240201002402410024027
:1009100010B504002000FFF7D1FF0028FAD010BD69
:1009200000B506281CD800F0E5FA06080A15110FD4
:1009300004000C4A04E00B4A09E00B4A07E00A4AAB
:1009400080211368490209E0084A00E0084A136858
:10095000012103E08021044A490413680B4313601A
:1009600000BDC0463410024000100240201002407A
:1009700024100240013800B505281AD800F0BAFA50
:1009800003080E19191403210A4A13688B430FE058
:100990000321084A13688B43023908E00321054A02
:1009A00013688B43013902E00321024A13680B43A9
:1009B000136000BD04100240034A044B11680B4051
:1009C000184310607047C04604100240FFFFC3FF89
:1009D000034A044B116800040B4018431060704731
:1009E00004100240FFFFFEFF034A044B11680B4056
:1009F000184310607047C04604100240FFF8FFFF24
:100A0000F021034A13688B43184310607047C046B7
:100A100004100240044B984204D11021034A136889
:100A20008B4313607047C0460054004030100240B2
:100A300010B50120FFF774FF0120FFF769FF0120C7
:100A4000FFF798FF0020FFF7DBFF0020FFF7CCFF48
:100A500000F0C2F8012000F0C7F8A0208003FFF7E3
:100A6000ABFF0020FFF7B4FF0320FFF759FF03207F
:100A7000FFF74EFF0320FFF77DFF034B034A136090
:100A8000034A136010BDC046006CDC021400002055
:100A90001000002081617047090481617047F7B53B
:100AA000002500910468C1680193019E01232E4135
:100AB0001E420BD003266F00BE40F6433440314047
:100AC0001600009BBE40BB4031431C430135102D36
:100AD000EBD10460C160F7BDF7B500250F27046AAC
:100AE000436A0192019E01222E41164206D03A002D
:100AF000AE00B24094430A00B24014430135082DC1
:100B0000F0D100250F272E00019A08363241160039
:100B10000122164206D03A00AE00B24093430A00CA
:100B2000B24013430135082DEDD104624362F7BD95
:100B3000C3681943C1607047036919400800411E2A
:100B40008841C0B27047C943016170478022036881
:100B50009343036070470822036893430360704720
:100B60000122036813430360704781627047C162CA
:100B7000704700B5030006290DD8080000F0BAF947
:100B8000040B060B080B0A005A6304E09A6302E0A8
:100B9000DA6300E01A6400BD406A7047054A430901
:100BA0009B181F2210401E3A824019680A431A609F
:100BB0007047C04600100240064A43099B181F2296
:100BC00010401E3A82401968114319601968914318
:100BD00019607047001002401021024A13680B434D
:100BE00013607047002002400721034A13688B43BB
:100BF000184310607047C04600200240044B10B5F7
:100C00001B6804004808C01800F07EF9E06010BDC1
:100C100014000020082903D10268044B134003E0AC
:100C2000802203685201134303607047FFEFFFFF08
:100C30004268024B1340194341607047FFCFFFFFEA
:100C40000268024B1340194301607047FFF9FFFF30
:100C50000C22036893431943016070478268024B7A
:100C60001340194381607047FFFCFFFF01220368B6
:100C700013430360704770B50D00040000F00DF8D9
:100C80002900200000F001F870BDC905C90D81627E
:100C90007047406AC005C00D70478023C2691A4280
:100CA000FCD07047064B10B5984204D0054B9842D3
:100CB00004D1054800E00548FFF77EFF10BDC0469F
:100CC00000540040005800401602000015020000C9
:100CD00001220368134303607047012203689343B2
:100CE00003607047490081608268024B1340836053
:100CF0007047C046FFFBFFFF406AC0B2704700006C
:100D00000268024B134003607047C046FFEFFFFFCD
:100D10000268034B09021340194301607047C04643
:100D2000FFF0FFFF036909071B011B09194301615C
:100D3000704700000269034B090513401943016124
:100D40007047C046FFFF0FFF0269034B09041340C1
:100D5000194301617047C046FFFFF0FF0269034B72
:100D600009021340194301617047C046FF00FFFFAD
:100D7000FF22036993431943016170470268024BE4
:100D8000134003607047C046FFFFFDFF4268024BFF
:100D9000134043607047C046FFF7FFFF03681943E5
:100DA0000160704710B50400012914D0022927D032
:100DB0009208013AD1B2FFF7B5FF13212000FFF7E7
:100DC000D7FF0F212000FFF7C9FF02212000FFF706
:100DD000BBFF042111E0D208013AD1B2FFF7A2FF14
:100DE00009212000FFF7C4FF03212000FFF7B6FF11
:100DF00003212000FFF7A8FF03212000FFF79AFF3F
:100E000010BDFEE770470000002270B51748184D6E
:100E10001849131854198B4203D2246804321C60F9
:100E2000F7E70021144A934202D219600433FAE72B
:100E30008021124A89001368114C0B431360114B37
:100E40009C4202D208CC9847F9E70F4C0F4B9C42CA
:100E500002D208CC9847F9E7FFF7B4FB0C4C0D4BD6
:100E60009C4202D208CC9847F9E770BD00000020F0
:100E7000D8130008180000200401002014ED00E041
:100E8000D8130008D8130008D8130008D813000896
:100E9000D8130008D8130008024B0002000A18609B
:100EA0007047C04614E000E0042303490A689A43EF
:100EB000034013430B60704710E000E00221024A38
:100EC00013680B431360704710E000E00121024AF1
:100ED00013680B431360704710E000E04309044AB5
:100EE0009B009B181F2210401E3A82401A607047D8
:100EF00000E100E002B4714649084900095C49007C
:100F00008E4402BC7047C046002243088B4274D313
:100F100003098B425FD3030A8B4244D3030B8B42FA
:100F200028D3030C8B420DD3FF22090212BA030C03
:100F30008B4202D31212090265D0030B8B4219D3E4
:100F400000E0090AC30B8B4201D3CB03C01A524104
:100F5000830B8B4201D38B03C01A5241430B8B424C
:100F600001D34B03C01A5241030B8B4201D30B0335
:100F7000C01A5241C30A8B4201D3CB02C01A52415C
:100F8000830A8B4201D38B02C01A5241430A8B421F
:100F900001D34B02C01A5241030A8B4201D30B0208
:100FA000C01A5241CDD2C3098B4201D3CB01C01A22
:100FB000524183098B4201D38B01C01A524143092C
:100FC0008B4201D34B01C01A524103098B4201D31A
:100FD0000B01C01A5241C3088B4201D3CB00C01A87
:100FE000524183088B4201D38B00C01A52414308FF
:100FF0008B4201D34B00C01A5241411A00D2014624
:10100000524110467047FFE701B5002000F0F0F8AC
:1010100002BDC0460029F7D076E7704703460B4370
:101020007FD4002243088B4274D303098B425FD3E1
:10103000030A8B4244D3030B8B4228D3030C8B420D
:101040000DD3FF22090212BA030C8B4202D31212F3
:10105000090265D0030B8B4219D300E0090AC30BC8
:101060008B4201D3CB03C01A5241830B8B4201D375
:101070008B03C01A5241430B8B4201D34B03C01A5E
:101080005241030B8B4201D30B03C01A5241C30AD6
:101090008B4201D3CB02C01A5241830A8B4201D347
:1010A0008B02C01A5241430A8B4201D34B02C01A31
:1010B0005241030A8B4201D30B02C01A5241CDD2D6
:1010C000C3098B4201D3CB01C01A524183098B4221
:1010D00001D38B01C01A524143098B4201D34B010A
:1010E000C01A524103098B4201D30B01C01A52416D
:1010F000C3088B4201D3CB00C01A524183088B42F4
:1011000001D38B00C01A524143088B4201D34B00DC
:10111000C01A5241411A00D201465241104670474E
:101120005DE0CA0F00D04942031000D34042534053
:1011300000229C4603098B422DD3030A8B4212D313
:10114000FC22890112BA030A8B420CD38901921145
:101150008B4208D3890192118B4204D389013AD082
:10116000921100E08909C3098B4201D3CB01C01A57
:10117000524183098B4201D38B01C01A524143096A
:101180008B4201D34B01C01A524103098B4201D358
:101190000B01C01A5241C3088B4201D3CB00C01AC5
:1011A000524183088B4201D38B00C01A5241D9D2DD
:1011B00043088B4201D34B00C01A5241411A00D25E
:1011C0000146634652415B10104601D34042002B5A
:1011D00000D54942704763465B1000D3404201B5D9
:1011E000002000F005F802BD0029F8D016E770478E
:1011F0007047C0464302590A4300C20F1B0E00202D
:101200007E2B0EDD9D2B0DDC802000040143952BF1
:101210000BDC9620C31AD9400B005842002A00D19B
:1012200018007047034BD018FBE7963B99400B0022
:10123000F3E7C046FFFFFF7F000000003200000020
:101240006400000096000000C8000000F9000000E3
:10125000290100005901000088010000B6010000CA
:10126000E30100000E0200003902000062020000EB
:101270008A020000B0020000D4020000F702000061
:101280001803000036030000530300006E03000043
:10129000870300009E030000B2030000C4030000A7
:1012A000D4030000E1030000EC030000F50300009C
:1012B000FB030000FF0300000004000060050008BD
:1012C00060050008740400087E0400088A04000811
:1012D00096040008A0040008D2040008E4040008F2
:1012E00006050008120500086005000860050008F2
:1012F000600500086005000860050008600500083A
:101300006005000860050008600500086005000829
:101310006005000860050008600500086005000819
:101320006005000860050008600500086005000809
:1013300060050008600500086005000860050008F9
:1013400060050008600500086005000860050008E9
:1013500060050008600500086005000860050008D9
:1013600060050008600500086005000860050008C9
:1013700060050008600500086005000860050008B9
:1013800060050008600500086005000860050008A9
:101390006005000860050008600500086005000899
:1013A0006005000860050008600500086005000889
:1013B0006005000860050008600500086005000879
:1013C0006005000860050008600500084A0500087F
:0813D0000D0A00002D000000D1
:1013D8003200320080BB0000FFFFFF00E80300007E
:0813E80000127A0000127A00E5
:0400000508000E09D8
:00000001FF
