:020000040800F2
:1000000000100020CD0E0008C90E0008C70E000821
:1000100000000000000000000000000000000000E0
:10002000000000000000000000000000C90E0008F1
:100030000000000000000000C90E0008C90E000802
:10004000C70E0008C70E0008C70E0008C70E00083C
:10005000C70E0008C70E0008C70E0008C70E00082C
:10006000C70E0008C70E0008C70E0008C70E00081C
:10007000C70E0008C70E0008C70E0008C70E00080C
:10008000C70E0008C70E0008C70E0008C70E0008FC
:10009000C70E0008B5040008C70E0008E1040008F8
:1000A000C70E0008C70E0008C70E0008E9000008C8
:1000B000C70E0008C70E0008C70E0008C70E0008CC
:1000C00070B50600017800290AD00024054D89B2D8
:1000D000280000F032FE0134E4B2315D0029F6D18F
:1000E00070BDC0460038014010B5184B1B689B0618
:1000F0001ED5174B1B689B061AD5144800F02BFE23
:10010000C0B2144A11784B1CDBB21370124A50541F
:100110000021D1540D2806D1104B1B6810009847C0
:1001200000220C4B1A70094A116880230B4313609C
:10013000064B1B681B0608D5054B1B681B0604D520
:10014000024A136880218B43136010BD00380140C0
:100150001C38014018000020240000201C00002052
:10016000F0B587B005000F00002822D0002600E07F
:1001700026000A21280000F08DFF303101AB99558F
:10018000741CE4B20A21280000F0FEFE051EEFD127
:10019000002C0ED0631E01AA944663443A00A11EAF
:1001A0008E1B664419781170013B0132B342F9D1BC
:1001B00002E030233B70012400233B5507B0F0BD23
:1001C00000B587B001A9FFF7CBFF01A8FFF778FFC3
:1001D00007B000BDF0B5474680B480460024084F04
:1001E000084EE519A05B43465843642100F056FFD2
:1001F00028800234422CF4D104BC9046F0BDC046A5
:1002000030000020A415000810B5C3171B1ADB0F1F
:10021000C20F9B1A114A12685343114A1360C31745
:10022000C01858400F4B18600F4B984203D800225B
:100230000E4B1A7009E0010C0C4B1970FF2319408A
:10024000013100F0A1FE074B1860064B1A68084BFD
:100250001A60064B1A78074B1A6010BD7800002010
:10026000A400002080000020FFFF0000C500002047
:100270002C4401403044014010B5354B1A68354BD1
:100280001B689A4263D0334B1A68314B19681B685C
:10029000521AD11752184A405B10D9175B184B40BD
:1002A0009A4208DA2B4B1B68294A12689B1ADA1704
:1002B0009B18534005E0264B1B685B10DA179B1810
:1002C0005340002B04D1224B1A68224B1A603AE0AB
:1002D0001F4A12681F490868C117091AC90FC00FC1
:1002E000081AD117891AC90FD20F8A1A90420FD152
:1002F000174A1168174A1268914204DA14490A68C9
:100300009B180B6013E012490A68D31A0B600EE0C9
:100310000F4A11680F4A1268914204DA0C490A68C0
:10032000D31A0B6003E00A490A689B180B60084B5C
:100330001B68DA179B185340074A934203DD044AAF
:1003400013685B421360024B1868FFF75DFF10BD36
:10035000B4000020880000208813000070B54D4BC9
:100360001A684D4B1B689A420AD14C4B1B68002BF4
:1003700006D00022494B1A60494A474B1A6087E071
:10038000FFF77AFF454A106842490B68C3180B60B3
:100390001268444B1B68D31803D58033414A13605D
:1003A00007E07F2B02DC3F4A136002E0803B3D4ABE
:1003B00013603C4B1B685811C1B2DA17D20E9B1860
:1003C0001F2423409B1A2022D21AD2B2C0072DD557
:1003D0003548E03423405B001C5A5200155A01296D
:1003E00011D19026F605300000F0D0FB022130003C
:1003F00000F0CEFB0821300000F0CAFB10213000D5
:1004000000F0C4FB40E09026F6050121300000F02A
:10041000BFFB0221300000F0B9FB0821300000F0E2
:10042000B5FB1021300000F0B3FB2DE01E48520058
:10043000145AFF2213405B001D5A002912D1902646
:10044000F6050131300000F0A1FB0221300000F080
:100450009FFB0821300000F099FB1021300000F0D4
:1004600097FB11E09026F6050121300000F090FB8B
:100470000221300000F08AFB0821300000F088FBE8
:100480001021300000F082FB084B1D60084B1C60FF
:1004900070BDC0467400002008000020A4000020A9
:1004A000EEEEFFFFBC0000203000002034040040CE
:1004B0003804004010B50121074800F0B9FB0028BE
:1004C00009D00121044800F0BAFB044B1B68002B43
:1004D00001D0FFF743FF10BD00440140A4000020FD
:1004E00010B5684B1B681A071DD5DB0306D5002223
:1004F000654B1A70654A664B1A600EE00123624A2A
:1005000013700021634A1170634A64490A606449A8
:100510000A605C4A11680B431360624A1168082341
:100520000B431360ACE05A071BD55A4B1B78DBB268
:10053000092B00D9A4E05C4800F040FC554B1B7827
:10054000002B02D1594B187005E0524B1B78524AD0
:10055000D318013B18704F4A13780133DBB2137084
:100560008EE09A0708D54A4A1368591C11601B7817
:10057000DBB24F4A136083E09A067AD54A4800F00E
:1005800009FC484A116820230B4313603E4B1B783B
:10059000002B75D0454B1B78DBB2442B70D89B00E9
:1005A000444AD3589F46444B1A68384B1A6067E058
:1005B0003A4B1B681A68404B1A6061E0374B1B6866
:1005C0001A683E4B1A605BE03C4B1A682F4B1A606E
:1005D00056E0324B1B681868394B1860FFF714FE61
:1005E0004EE02E4B1B681B68DA179B185340354AA8
:1005F000136045E0294B1B681968334C216080204B
:10060000C00500F029FB2168304800F0BDFC304BEC
:10061000186035E0214B1B681868FFF7DBFD2FE001
:100620001F4B1B681C682B4B1C60294B186800F083
:100630005DFF211C00F01EFE00F036FF204B18600D
:100640001868FFF7E1FD1BE0154B1B681C68224B87
:100650001C601F4B186800F049FF211C00F00AFEC7
:1006600000F022FF1D4B18600AE001221C4B1A709B
:1006700006E0DB0604D50B4A116810230B43136018
:1006800010BDC046185400409D000020940000207A
:100690007C0000209C000020A8000020C00000205A
:1006A000840000201C54004000540040C40000207E
:1006B00028540040E81500087400002008000020BD
:1006C000B4000020780000200C000020006CDC0248
:1006D0000400002098000020A000002088000020D6
:1006E00020000020F0B557464E464546E0B43C2079
:1006F000FFF770FD00F018FA8D4800F0B1FA8D4850
:1007000000F0AEFA8C4800F0ABFA8C4800F0A8FA82
:100710009025ED051F2300220121280000F03BFA5F
:10072000874B00220221280000F035FA0422012123
:10073000280000F04DFAC0220121280000F048FAFC
:10074000804C96218901200000F0BAFA082120008F
:1007500000F0C2FA0021200000F0D4FA00212000AD
:1007600000F0C8FA0821200000F0D4FA002120008F
:1007700000F0D6FA200000F0DBFA734800F070FABF
:10078000172000F0EBFB714C200000F0BFF9C026F1
:10079000F600330000220221280000F0FCF93200AC
:1007A0000421280000F014FA200000F0DDFA2000F7
:1007B00000F0F5FA200000F005FB0021200000F019
:1007C00009FB08220021200000F04EFB200000F071
:1007D00037FB200000F03CFB5D4B1978200000F057
:1007E000E3FA5C4A1368802109020B4313603E213F
:1007F000200000F035FB200000F0CCFA564800F055
:100800002FFA152000F0AAFB9220FF3000F036FAF4
:10081000524B1968524C200000F01EFA514B994679
:10082000514B4A461A600021200000F017FA2000C0
:1008300000F008FA200000F00AFA0121200000F080
:10084000F3F94A4A0024146080218900484B19605A
:10085000484B1C600121484B1960484F3B68682099
:10086000824603433B60464B18680843186045487E
:10087000046038688446D020C00180466046464601
:10088000304338601868102707431F603E4F3C60B4
:100890003E4F3868564606433E60186880277F0101
:1008A000384318603A4B1C60106880230343136080
:1008B00013680B431360374B1960280000F066F98A
:1008C0000821280000F062F90221280000F060F9F8
:1008D0001021280000F05CF92F4B4A461A602F4B7C
:1008E0001C602F4B98462F4F2F4E43461B78002BF2
:1008F00014D02E4D00242000FFF762FC3800FFF7D3
:10090000DFFB2888FFF75CFC3000FFF7D9FB0134E0
:100910000235212CEFD10022214B1A70244B1A886A
:10092000002AE2DD0023C04601339342FBDBDCE713
:100930008103000091020000920200000E030000FB
:10094000C406000000380140950300000054004038
:100950000200002008540040110300000C00002099
:1009600000440140FFFF00002C440140000400400F
:100970002C040040280400401404004018040040E7
:100980002004004034040040380400401C040040AF
:10099000400400407800002080000020A4000020D7
:1009A0002000002000170008FC160008300000207E
:1009B0000000002000B5002306281AD8012200F00C
:1009C000D9FA06080A0E141204000B4B04E00A4B75
:1009D0000CE00A4B0AE0094B1B685B0C08E0074B74
:1009E0001B685B0E04E0064B00E0064B1B685B08CF
:1009F0001340180000BDC0463410024000100240F1
:100A0000201002402410024010B504002000FFF71F
:100A1000D1FF0028FAD010BD00B506281CD800F080
:100A2000A9FA06080A15110F04000C4A04E00B4A43
:100A300009E00B4A07E00A4A80211368490209E0ED
:100A4000084A00E0084A1368012103E08021044AB3
:100A5000490413680B43136000BDC04634100240C4
:100A6000001002402010024024100240013800B55E
:100A700005281AD800F07EFA03080E19191403216C
:100A80000A4A13688B430FE00321084A13688B431B
:100A9000023908E00321054A13688B43013902E05B
:100AA0000321024A13680B43136000BD0410024087
:100AB000034A044B11680B40184310607047C0464E
:100AC00004100240FFFFC3FF034A044B11680004F7
:100AD0000B4018431060704704100240FFFFFEFFF8
:100AE000034A044B11680B40184310607047C0461E
:100AF00004100240FFF8FFFFF021034A13688B4304
:100B0000184310607047C04604100240044B9842DE
:100B100004D11021034A13688B4313607047C04609
:100B2000005400403010024010B50120FFF774FF60
:100B30000120FFF769FF0120FFF798FF0020FFF772
:100B4000DBFF0020FFF7CCFF00F0A8F8012000F049
:100B5000ADF8A0208003FFF7ABFF0020FFF7B4FF44
:100B60000320FFF759FF0320FFF74EFF0320FFF795
:100B70007DFF034B034A1360034A136010BDC04658
:100B8000006CDC021400002010000020816170471E
:100B9000090481617047F7B5002500910468C168B8
:100BA0000193019E01232E411E420BD003266F00AC
:100BB000BE40F643344031401600009BBE40BB406F
:100BC00031431C430135102DEBD10460C160F7BDEA
:100BD000F7B500250F27046A436A0192019E01229E
:100BE0002E41164206D03A00AE00B24094430A00AD
:100BF000B24014430135082DF0D100250F272E00F7
:100C0000019A0836324116000122164206D03A00F7
:100C1000AE00B24093430A00B24013430135082DA1
:100C2000EDD104624362F7BDC3681943C1607047E8
:100C3000036919400800411E8841C0B27047C9438A
:100C400001617047022203689343036070470122E9
:100C50000368134303607047816270470163704704
:100C6000054A43099B181F2210401E3A824019680A
:100C70000A431A607047C04600100240064A430902
:100C80009B181F2210401E3A8240196811431960B8
:100C90001968914319607047001002401021024A00
:100CA00013680B4313607047002002400721034A7A
:100CB00013688B43184310607047C0460020024001
:100CC000044B10B51B6804004808C01800F05CF91C
:100CD000E06010BD14000020082903D10268044B15
:100CE000134003E0802203685201134303607047FE
:100CF000FFEFFFFF4268024B13401943416070470A
:100D0000FFCFFFFF0268024B134019430160704799
:100D1000FFF9FFFF0C2203689343194301607047FA
:100D20008268024B1340194381607047FFFCFFFF4C
:100D30000122036813430360704770B50D0004007F
:100D400000F00DF82900200000F001F870BDC90581
:100D5000C90D81627047406AC005C00D704780238D
:100D6000C2691A42FCD07047064B10B5984204D0B5
:100D7000054B984204D1054800E00548FFF77EFF87
:100D800010BDC0460054004000580040160200004C
:100D9000150200000122036813430360704701221B
:100DA0000368934303607047490081608268024B87
:100DB000134083607047C046FFFBFFFF406AC0B22C
:100DC000704700000268024B134003607047C04642
:100DD000FFEFFFFF0268034B090213401943016054
:100DE0007047C046FFF0FFFF036909071B011B099D
:100DF00019430161704700000269034B0905134064
:100E0000194301617047C046FFFF0FFF0269034BA2
:100E100009041340194301617047C046FFFFF0FF0A
:100E20000269034B09021340194301617047C04630
:100E3000FF00FFFFFF2203699343194301617047DD
:100E40000268024B134003607047C046FFFFFDFF7E
:100E50004268024B134043607047C046FFF7FFFFF4
:100E6000036819430160704710B50400012914D0CC
:100E7000022927D09208013AD1B2FFF7B5FF13211A
:100E80002000FFF7D7FF0F212000FFF7C9FF022145
:100E90002000FFF7BBFF042111E0D208013AD1B2D4
:100EA000FFF7A2FF09212000FFF7C4FF0321200064
:100EB000FFF7B6FF03212000FFF7A8FF0321200062
:100EC000FFF79AFF10BDFEE770470000002270B5E3
:100ED0001748184D1849131854198B4203D2246827
:100EE00004321C60F7E70021144A934202D21960D1
:100EF0000433FAE78021124A89001368114C0B432E
:100F00001360114B9C4202D208CC9847F9E70F4C72
:100F10000F4B9C4202D208CC9847F9E7FFF7E2FB5F
:100F20000C4C0D4B9C4202D208CC9847F9E770BD9F
:100F3000000000208417000818000020C8000020CE
:100F400014ED00E0841700088417000884170008D7
:100F50008417000884170008841700084309044A0E
:100F60009B009B181F2210401E3A82401A60704757
:100F700000E100E002B4714649084900095C4900FB
:100F80008E4402BC7047C046002243088B4274D393
:100F900003098B425FD3030A8B4244D3030B8B427A
:100FA00028D3030C8B420DD3FF22090212BA030C83
:100FB0008B4202D31212090265D0030B8B4219D364
:100FC00000E0090AC30B8B4201D3CB03C01A524184
:100FD000830B8B4201D38B03C01A5241430B8B42CC
:100FE00001D34B03C01A5241030B8B4201D30B03B5
:100FF000C01A5241C30A8B4201D3CB02C01A5241DC
:10100000830A8B4201D38B02C01A5241430A8B429E
:1010100001D34B02C01A5241030A8B4201D30B0287
:10102000C01A5241CDD2C3098B4201D3CB01C01AA1
:10103000524183098B4201D38B01C01A52414309AB
:101040008B4201D34B01C01A524103098B4201D399
:101050000B01C01A5241C3088B4201D3CB00C01A06
:10106000524183088B4201D38B00C01A524143087E
:101070008B4201D34B00C01A5241411A00D20146A3
:10108000524110467047FFE701B5002000F0F0F82C
:1010900002BDC0460029F7D076E7704703460B43F0
:1010A0007FD4002243088B4274D303098B425FD361
:1010B000030A8B4244D3030B8B4228D3030C8B428D
:1010C0000DD3FF22090212BA030C8B4202D3121273
:1010D000090265D0030B8B4219D300E0090AC30B48
:1010E0008B4201D3CB03C01A5241830B8B4201D3F5
:1010F0008B03C01A5241430B8B4201D34B03C01ADE
:101100005241030B8B4201D30B03C01A5241C30A55
:101110008B4201D3CB02C01A5241830A8B4201D3C6
:101120008B02C01A5241430A8B4201D34B02C01AB0
:101130005241030A8B4201D30B02C01A5241CDD255
:10114000C3098B4201D3CB01C01A524183098B42A0
:1011500001D38B01C01A524143098B4201D34B0189
:10116000C01A524103098B4201D30B01C01A5241EC
:10117000C3088B4201D3CB00C01A524183088B4273
:1011800001D38B00C01A524143088B4201D34B005C
:10119000C01A5241411A00D20146524110467047CE
:1011A0005DE0CA0F00D04942031000D340425340D3
:1011B00000229C4603098B422DD3030A8B4212D393
:1011C000FC22890112BA030A8B420CD389019211C5
:1011D0008B4208D3890192118B4204D389013AD002
:1011E000921100E08909C3098B4201D3CB01C01AD7
:1011F000524183098B4201D38B01C01A52414309EA
:101200008B4201D34B01C01A524103098B4201D3D7
:101210000B01C01A5241C3088B4201D3CB00C01A44
:10122000524183088B4201D38B00C01A5241D9D25C
:1012300043088B4201D34B00C01A5241411A00D2DD
:101240000146634652415B10104601D34042002BD9
:1012500000D54942704763465B1000D3404201B558
:10126000002000F005F802BD0029F8D016E770470D
:101270007047C046F0B5564644465F464D46F0B40A
:1012800044024600C70F83B08846650A360EBA4648
:101290003DD0FF2E22D00023EC00802599469B46AE
:1012A000ED0425437F3E43465C025800DB0F640A91
:1012B000000E984636D0FF2830D080230021E4006D
:1012C000DB041C437F38301A0190484642460843ED
:1012D000724E800030587A4013008746002D44D16A
:1012E00008239946063B9B46DDE70122FF200024A8
:1012F0001A406402C305640AD2071C431443200049
:1013000003B03CBC90469946A246AB46F0BD002DCA
:1013100020D104239946033B9B46C4E7002C17D1F8
:10132000022102E0002C0AD10121321A01924A4620
:1013300043460A435A48920082587B409746200011
:1013400000F012F9431F76309C4040420021BAE77A
:101350000321B8E7280000F007F9431F9D40002350
:101360007630464299469B469DE70C239946093BB9
:101370009B4698E780240022E403FF20B9E700247D
:10138000C2468B465A465346022AAED0032A7DD027
:10139000012A31D1012200201A400024A9E70122AC
:1013A000101A1B2856DD1A4000200024A1E78023D4
:1013B000DB031D424BD18023DB032B435C02640A19
:1013C0003A00FF2095E76D016001854230D2019A15
:1013D0000024013A01921B220127290064006D00BC
:1013E000002901DBA84201D82D1A3C43013A002A0A
:1013F000F3D16A1E95412C4301987F300028CEDD41
:10140000620704D00F222240042A00D004342201B3
:1014100003D5244A019814408030FE2800DD64E79B
:101420000122A401640AC0B21A4062E72C00A9E7B5
:101430002D1A1A220124CFE76B02BCD50024802389
:10144000DB031C436402640A4246FF2051E71C424E
:10145000B3D1F4E721002022C140101A8440621E5B
:1014600094410C43620704D00F222240042A00D08A
:101470000434620104D5012201201A40002438E717
:101480000122A401640A1A40002032E78023DB0312
:101490001C436402640A5246FF202AE7041700082E
:1014A00044170008FFFFFFF74302590A4300C20F29
:1014B0001B0E00207E2B0EDD9D2B0DDC80200004FA
:1014C0000143952B0BDC9620C31AD9400B005842E0
:1014D000002A00D118007047034BD018FBE7963B59
:1014E00099400B00F3E7C046FFFFFF7F70B5041E75
:1014F00028D000F039F89E231B1A962B0ADC96227E
:10150000D21A94406202520AD8B25202520AC0055C
:10151000104370BD992B18DC9922D21A9440114ABD
:101520002240610704D00F210C40042C00D004326B
:10153000510103D50B4B1A409F231B1A9201520AEB
:10154000D8B2E2E700200022DFE705222500121AC8
:10155000B921D5402200C91A8A40541EA2412C004C
:101560001443DCE7FFFFFFFB1C2101231B0498420F
:1015700001D3000C10391B0A984201D3000A083924
:101580001B09984201D30009043902A2105C4018DB
:101590007047C0460403020201010101000000007F
:1015A000000000000000320064009600C800F9004E
:1015B000290159018801B601E3010E0239026202D4
:1015C0008A02B002D402F7021803360353036E03F3
:1015D00087039E03B203C403D403E103EC03F503C2
:1015E000FB03FF03000400008006000880060008DB
:1015F000A6050008B0050008BC050008C8050008DD
:10160000D2050008E2050008F405000814060008E9
:10161000200600084806000880060008800600082A
:101620008006000880060008800600088006000882
:101630008006000880060008800600088006000872
:101640008006000880060008800600088006000862
:101650008006000880060008800600088006000852
:101660008006000880060008800600088006000842
:101670008006000880060008800600088006000832
:101680008006000880060008800600088006000822
:101690008006000880060008800600088006000812
:1016A0008006000880060008800600088006000802
:1016B00080060008800600088006000880060008F2
:1016C00080060008800600088006000880060008E2
:1016D00080060008800600088006000880060008D2
:1016E00080060008800600088006000880060008C2
:1016F00080060008800600086A0600080D0A00003F
:101700002D000000C6130008EA120008A813000804
:1017100080130008A813000874130008A813000819
:1017200080130008EA120008EA1200087413000887
:10173000801300082C1400082C1400082C14000836
:10174000AE130008EA120008EA1200089413000819
:101750007E13000894130008741300089413000803
:101760007E130008EA120008EA1200087413000849
:101770007E1300082C1400082C1400082C140008F8
:041780003814000811
:101784003200340080BB0000FFFFFF00E8030000CC
:0817940000127A0000127A0035
:0400000508000ECD14
:00000001FF
