:020000040800F2
:1000000000100020650E0008610E00085F0E000859
:1000100000000000000000000000000000000000E0
:10002000000000000000000000000000610E000859
:100030000000000000000000610E0008610E0008D2
:100040005F0E00085F0E00085F0E00085F0E0008DC
:100050005F0E00085F0E00085F0E00085F0E0008CC
:100060005F0E00085F0E00085F0E00085F0E0008BC
:100070005F0E00085F0E00085F0E00085F0E0008AC
:100080005F0E00085F0E00085F0E00085F0E00089C
:100090005F0E0008590300085F0E0008A90400085D
:1000A0005F0E00085F0E00085F0E0008E900000800
:1000B0005F0E00085F0E00085F0E00085F0E00086C
:1000C00070B50600017800290AD00024054D89B2D8
:1000D000280000F0FEFD0134E4B2315D0029F6D1C4
:1000E00070BDC0460038014010B5184B1B689B0618
:1000F0001ED5174B1B689B061AD5144800F0F7FD58
:10010000C0B2144A11784B1CDBB21370124A50541F
:100110000021D1540D2806D1104B1B6810009847C0
:1001200000220C4B1A70094A116880230B4313609C
:10013000064B1B681B0608D5054B1B681B0604D520
:10014000024A136880218B43136010BD00380140C0
:100150001C38014018000020240000201C00002052
:10016000F0B587B005000F00002822D0002600E07F
:1001700026000A21280000F059FF303101AB9955C3
:10018000741CE4B20A21280000F0CAFE051EEFD15B
:10019000002C0ED0631E01AA944663443A00A11EAF
:1001A0008E1B664419781170013B0132B342F9D1BC
:1001B00002E030233B70012400233B5507B0F0BD23
:1001C00000B587B001A9FFF7CBFF01A8FFF778FFC3
:1001D00007B000BDF0B5474680B480460024084F04
:1001E000084EE519A05943465843642100F022FF08
:1001F00028600434842CF4D104BC9046F0BDC04681
:10020000300000201017000870B54B4B1A684B4B9C
:100210001B689A4209D14A4B1B68002B05D000226B
:10022000474B1A60474A454B1A60454A1068424995
:100230000B68C3180B601268434B1B68D31803D5B7
:100240008033414A136007E07F2B02DC3E4A136093
:1002500002E0803B3C4A13603B4B1B685811C1B223
:10026000DA17D20E9B181F2423409B1A2022D21A81
:10027000D2B2C0072DD53548E03423409B00C45C82
:100280009200855C012911D19026F605300000F01E
:1002900049FC0221300000F047FC0821300000F04A
:1002A00043FC1021300000F03DFC40E09026F605B4
:1002B0000121300000F038FC0221300000F032FC57
:1002C0000821300000F02EFC1021300000F02CFC42
:1002D0002DE01E489200845CFF2213409B00C55C09
:1002E000002912D19026F6050131300000F01AFCE9
:1002F0000221300000F018FC0821300000F012FC50
:100300001021300000F010FC11E09026F6050121CC
:10031000300000F009FC0221300000F003FC08214D
:10032000300000F001FC1021300000F0FBFB084B16
:100330001D60084B1C6070BDB40000200800002048
:10034000E0000020EEEEFFFFF8000020300000206B
:10035000340400403804004010B50121074800F083
:1003600033FC002809D00121044800F034FC044B80
:100370001B68002B01D0FFF747FF10BD0044014070
:10038000E000002010B5C3171B1ADB0FC20F9B1A29
:10039000114A12685343114A1360C317C0185840DA
:1003A0000F4B18600F4B984203D800220E4B1A7067
:1003B00009E0010C0C4B1970FF231940013100F0CA
:1003C000AFFD074B1860064B1A68084B1A60064BC6
:1003D0001A78074B1A6010BDB8000020E00000201A
:1003E000C0000020FFFF0000010100202C4401405C
:1003F0003044014070B5051C0124002100F02CFFA1
:10040000431E98414042044001260021281C00F070
:100410000FFF431E984140420640A41B194B1B6826
:100420005C43194B1C60194B186801F015F9291C25
:1004300000F026FF01F0EEF8C317C0185840144B27
:100440001860144B984203D80022134B1A7009E02D
:10045000010C114B1970FF231940013100F060FDB0
:100460000B4B1860084B1B68002B02D10B4A084B42
:100470001A60074B1A680A4B1A60074B1A78094B27
:100480001A6070BDB8000020E000002004000020C9
:10049000C0000020FFFF000001010020FEFF00005F
:1004A0002C4401403044014010B55C4B1B681A07D6
:1004B0001DD5DB0306D50022594B1A70594A5A4BF9
:1004C0001A600EE00123564A13700021574A11703A
:1004D000574A58490A6058490A60504A11680B4304
:1004E0001360564A116808230B43136095E05A07BE
:1004F0001BD54E4B1B78DBB2092B00D98DE0504841
:1005000000F028FC494B1B78002B02D14D4B187092
:1005100005E0464B1B78464AD318013B1870434A06
:1005200013780133DBB2137077E09A0708D53E4A9F
:100530001368591C11601B78DBB2434A13606CE0EE
:100540009A0663D53E4800F0F1FB3C4A116820232F
:100550000B431360324B1B78002B5ED0394B1B785A
:10056000DBB2442B59D89B00384AD3589F46384BAE
:100570001A682C4B1A6050E02E4B1B681A68344BDB
:100580001A604AE02B4B1B681A68324B1A6044E031
:10059000304B1A68234B1A603FE0264B1B681868E3
:1005A0002D4B1860FFF7EEFE37E0224B1B681B68EF
:1005B000DA179B185340294A13602EE01D4B1B6825
:1005C0001968274C21608020C00500F011FB2168CC
:1005D000244800F0A5FC244B18601EE0154B1B6856
:1005E0001868FFF7F7FD18E0134B1B6818681F4BDE
:1005F0001860FFF7FFFE10E00F4B1B681A681C4BDA
:100600001A600AE001221B4B1A7006E0DB0604D5D3
:100610000A4A116810230B43136010BD18540040A0
:10062000D9000020D0000020BC000020D80000200D
:10063000E4000020FC000020C40000201C54004006
:100640000054004000010020285400409417000886
:10065000B400002008000020F0000020B8000020B6
:100660000C000020006CDC0204000020D4000020FC
:10067000DC00002020000020F0B557464E464546DD
:10068000E0B41820FFF7A6FD00F01AFA8E4800F03B
:10069000B3FA8E4800F0B0FA8D4800F0ADFA8D48FC
:1006A00000F0AAFA9025ED051F2300220121280061
:1006B00000F03DFA884B00220221280000F037FAB2
:1006C00004220121280000F04FFAC0220121280055
:1006D00000F04AFA814C96218901200000F0BCFA12
:1006E0000821200000F0C4FA0021200000F0D6FA12
:1006F0000021200000F0CAFA0821200000F0D6FAFC
:100700000021200000F0D8FA200000F0DDFA744843
:1007100000F072FA172000F0EDFB724C200000F0A0
:10072000C1F9C026F600330000220221280000F0A3
:10073000FEF932000421280000F016FA200000F033
:10074000DFFA200000F0F7FA200000F007FB00219C
:10075000200000F00BFB08220021200000F050FBDD
:10076000200000F039FB200000F03EFB5E4B1978C2
:10077000200000F0E5FA5D4A1368802109020B436E
:1007800013603E21200000F037FB200000F0CEFA7D
:10079000574800F031FA152000F0ACFB9220FF30F2
:1007A00000F038FA534B1968534C200000F020FA3F
:1007B000524B9946524B4A461A600021200000F0E5
:1007C00019FA200000F00AFA200000F00CFA0121CA
:1007D000200000F0F5F94B4A0021116080208000D4
:1007E000494B1860494B19600124494B1C60494F23
:1007F0003B689938FF38824603433B60464B186894
:10080000204318604548016038688446D020C00104
:1008100080466046464630433860186810270743D4
:100820001F603F4F39603F4F3868564606433E6071
:10083000186880277F01384318603B4B19601168A6
:1008400080230B431360136823431360374B1C60F2
:100850000121280000F066F90821280000F062F963
:100860000221280000F060F91021280000F05CF956
:100870002F4B4A461A602F4B1C602F4B98462F4F28
:100880002F4E43461B78002B13D02E4D0024200002
:10089000FFF796FC3800FFF713FC01CDFFF790FC43
:1008A0003000FFF70DFC0134212CF0D10022224B47
:1008B0001A70254B1A88002AE3DD0023C046013355
:1008C0009342FBDBDDE7C04681030000910200009C
:1008D000920200000E030000C40600000038014030
:1008E000950300000054004002000020085400401E
:1008F000110300000C00002000440140FFFF000035
:100900002C440140000400402C0400402804004016
:100910001404004018040040200400403404004047
:10092000380400401C04004040040040B80000208F
:10093000C0000020E000002020000020AC180008CB
:10094000A8180008300000200000002000B5002397
:1009500006281AD8012200F0D9FA06080A0E141245
:1009600004000B4B04E00A4B0CE00A4B0AE0094B75
:100970001B685B0C08E0074B1B685B0E04E0064B32
:1009800000E0064B1B685B081340180000BDC04622
:100990003410024000100240201002402410024097
:1009A00010B504002000FFF7D1FF0028FAD010BDD9
:1009B00000B506281CD800F0A9FA06080A15110F80
:1009C00004000C4A04E00B4A09E00B4A07E00A4A1B
:1009D00080211368490209E0084A00E0084A1368C8
:1009E000012103E08021044A490413680B4313608A
:1009F00000BDC046341002400010024020100240EA
:100A000024100240013800B505281AD800F07EFAFB
:100A100003080E19191403210A4A13688B430FE0C7
:100A20000321084A13688B43023908E00321054A71
:100A300013688B43013902E00321024A13680B4318
:100A4000136000BD04100240034A044B11680B40C0
:100A5000184310607047C04604100240FFFFC3FFF8
:100A6000034A044B116800040B40184310607047A0
:100A700004100240FFFFFEFF034A044B11680B40C5
:100A8000184310607047C04604100240FFF8FFFF93
:100A9000F021034A13688B43184310607047C04627
:100AA00004100240044B984204D11021034A1368F9
:100AB0008B4313607047C046005400403010024022
:100AC00010B50120FFF774FF0120FFF769FF012037
:100AD000FFF798FF0020FFF7DBFF0020FFF7CCFFB8
:100AE00000F0A8F8012000F0ADF8A0208003FFF787
:100AF000ABFF0020FFF7B4FF0320FFF759FF0320EF
:100B0000FFF74EFF0320FFF77DFF034B034A1360FF
:100B1000034A136010BDC046006CDC0214000020C4
:100B20001000002081617047090481617047F7B5AA
:100B3000002500910468C1680193019E01232E41A4
:100B40001E420BD003266F00BE40F64334403140B6
:100B50001600009BBE40BB4031431C430135102DA5
:100B6000EBD10460C160F7BDF7B500250F27046A1B
:100B7000436A0192019E01222E41164206D03A009C
:100B8000AE00B24094430A00B24014430135082D30
:100B9000F0D100250F272E00019A083632411600A9
:100BA0000122164206D03A00AE00B24093430A003A
:100BB000B24013430135082DEDD104624362F7BD05
:100BC000C3681943C1607047036919400800411E9A
:100BD0008841C0B27047C94301617047022203686F
:100BE0009343036070470122036813430360704717
:100BF0008162704701637047054A43099B181F22B1
:100C000010401E3A824019680A431A607047C04675
:100C100000100240064A43099B181F2210401E3A4A
:100C2000824019681143196019689143196070472F
:100C3000001002401021024A13680B4313607047F2
:100C4000002002400721034A13688B4318431060B9
:100C50007047C04600200240044B10B51B680400DA
:100C60004808C01800F05CF9E06010BD14000020D6
:100C7000082903D10268044B134003E08022036873
:100C80005201134303607047FFEFFFFF4268024BBE
:100C90001340194341607047FFCFFFFF0268024BCA
:100CA0001340194301607047FFF9FFFF0C220368EE
:100CB00093431943016070478268024B1340194304
:100CC00081607047FFFCFFFF01220368134303604C
:100CD000704770B50D00040000F00DF829002000E9
:100CE00000F001F870BDC905C90D81627047406A06
:100CF000C005C00D70478023C2691A42FCD07047FE
:100D0000064B10B5984204D0054B984204D10548D3
:100D100000E00548FFF77EFF10BDC04600540040CC
:100D2000005800401602000015020000012203686E
:100D300013430360704701220368934303607047C5
:100D4000490081608268024B134083607047C0464F
:100D5000FFFBFFFF406AC0B2704700000268024B11
:100D6000134003607047C046FFEFFFFF0268034B6C
:100D700009021340194301607047C046FFF0FFFFAE
:100D8000036909071B011B09194301617047000032
:100D90000269034B09051340194301617047C046BE
:100DA000FFFF0FFF0269034B090413401943016160
:100DB0007047C046FFFFF0FF0269034B0902134072
:100DC000194301617047C046FF00FFFFFF2203691E
:100DD00093431943016170470268024B134003605B
:100DE0007047C046FFFFFDFF4268024B134043605F
:100DF0007047C046FFF7FFFF036819430160704763
:100E000010B50400012914D0022927D09208013A14
:100E1000D1B2FFF7B5FF13212000FFF7D7FF0F2155
:100E20002000FFF7C9FF02212000FFF7BBFF0421CC
:100E300011E0D208013AD1B2FFF7A2FF0921200048
:100E4000FFF7C4FF03212000FFF7B6FF03212000B6
:100E5000FFF7A8FF03212000FFF79AFF10BDFEE770
:100E600070470000002270B51748184D1849131834
:100E700054198B4203D2246804321C60F7E7002126
:100E8000144A934202D219600433FAE78021124ACD
:100E900089001368114C0B431360114B9C4202D222
:100EA00008CC9847F9E70F4C0F4B9C4202D208CC74
:100EB0009847F9E7FFF7E0FB0C4C0D4B9C4202D240
:100EC00008CC9847F9E770BD0000002030190008F1
:100ED000180000200401002014ED00E03019000883
:100EE00030190008301900083019000830190008BE
:100EF000301900084309044A9B009B181F22104028
:100F00001E3A82401A60704700E100E002B4714668
:100F100049084900095C49008E4402BC7047C0463C
:100F2000002243088B4274D303098B425FD3030A28
:100F30008B4244D3030B8B4228D3030C8B420DD33B
:100F4000FF22090212BA030C8B4202D312120902C9
:100F500065D0030B8B4219D300E0090AC30B8B4207
:100F600001D3CB03C01A5241830B8B4201D38B03B5
:100F7000C01A5241430B8B4201D34B03C01A52415A
:100F8000030B8B4201D30B03C01A5241C30A8B429D
:100F900001D3CB02C01A5241830A8B4201D38B0288
:100FA000C01A5241430A8B4201D34B02C01A52412C
:100FB000030A8B4201D30B02C01A5241CDD2C3099E
:100FC0008B4201D3CB01C01A524183098B4201D31A
:100FD0008B01C01A524143098B4201D34B01C01A05
:100FE000524103098B4201D30B01C01A5241C3087D
:100FF0008B4201D3CB00C01A524183088B4201D3EC
:101000008B00C01A524143088B4201D34B00C01AD7
:101010005241411A00D20146524110467047FFE743
:1010200001B5002000F0F0F802BDC0460029F7D05D
:1010300076E7704703460B437FD4002243088B4278
:1010400074D303098B425FD3030A8B4244D3030B4F
:101050008B4228D3030C8B420DD3FF22090212BA14
:10106000030C8B4202D31212090265D0030B8B4290
:1010700019D300E0090AC30B8B4201D3CB03C01A7A
:101080005241830B8B4201D38B03C01A5241430B55
:101090008B4201D34B03C01A5241030B8B4201D345
:1010A0000B03C01A5241C30A8B4201D3CB02C01AB0
:1010B0005241830A8B4201D38B02C01A5241430A28
:1010C0008B4201D34B02C01A5241030A8B4201D317
:1010D0000B02C01A5241CDD2C3098B4201D3CB01BE
:1010E000C01A524183098B4201D38B01C01A52416D
:1010F00043098B4201D34B01C01A524103098B4271
:1011000001D30B01C01A5241C3088B4201D3CB005B
:10111000C01A524183088B4201D38B00C01A52413E
:1011200043088B4201D34B00C01A5241411A00D2EE
:1011300001465241104670475DE0CA0F00D0494257
:10114000031000D34042534000229C4603098B42C7
:101150002DD3030A8B4212D3FC22890112BA030A4F
:101160008B420CD3890192118B4208D389019211D1
:101170008B4204D389013AD0921100E08909C30956
:101180008B4201D3CB01C01A524183098B4201D358
:101190008B01C01A524143098B4201D34B01C01A43
:1011A000524103098B4201D30B01C01A5241C308BB
:1011B0008B4201D3CB00C01A524183088B4201D32A
:1011C0008B00C01A5241D9D243088B4201D34B0045
:1011D000C01A5241411A00D20146634652415B1087
:1011E000104601D34042002B00D549427047634668
:1011F0005B1000D3404201B5002000F005F802BDAD
:101200000029F8D016E770477047C0468446081C8E
:101210006146FFE71FB500F0B9F9002801D40021AD
:10122000C8421FBD10B500F045F94042013010BD65
:1012300010B500F0ABF9002801DB002010BD012043
:1012400010BDC04610B500F0A1F9002801DD002056
:1012500010BD012010BDC04610B500F053F90028A4
:1012600001DC002010BD012010BDC04610B500F00B
:1012700049F9002801DA002010BD012010BDC04648
:10128000F0B5564644465F464D46F0B4440246002B
:10129000C70F83B08846650A360EBA463DD0FF2E8A
:1012A00022D00023EC00802599469B46ED0425437F
:1012B0007F3E43465C025800DB0F640A000E9846EE
:1012C00036D0FF2830D080230021E400DB041C430B
:1012D0007F38301A0190484642460843724E8000DB
:1012E00030587A4013008746002D44D10823994690
:1012F000063B9B46DDE70122FF2000241A406402E2
:10130000C305640AD2071C431443200003B03CBC4D
:1013100090469946A246AB46F0BD002D20D104234D
:101320009946033B9B46C4E7002C17D1022102E0FB
:10133000002C0AD10121321A01924A4643460A433F
:101340005A48920082587B409746200000F0C2F92C
:10135000431F76309C4040420021BAE70321B8E7A2
:10136000280000F0B7F9431F9D4000237630464225
:1013700099469B469DE70C239946093B9B4698E777
:1013800080240022E403FF20B9E70024C2468B46F4
:101390005A465346022AAED0032A7DD0012A31D1C3
:1013A000012200201A400024A9E70122101A1B285C
:1013B00056DD1A4000200024A1E78023DB031D42F4
:1013C0004BD18023DB032B435C02640A3A00FF20ED
:1013D00095E76D016001854230D2019A0024013AFF
:1013E00001921B220127290064006D00002901DB06
:1013F000A84201D82D1A3C43013A002AF3D16A1EB3
:1014000095412C4301987F300028CEDD620704D03F
:101410000F222240042A00D00434220103D5244A9A
:10142000019814408030FE2800DD64E70122A40109
:10143000640AC0B21A4062E72C00A9E72D1A1A22EA
:101440000124CFE76B02BCD500248023DB031C43BF
:101450006402640A4246FF2051E71C42B3D1F4E71C
:1014600021002022C140101A8440621E94410C4386
:10147000620704D00F222240042A00D00434620103
:1014800004D5012201201A40002438E70122A401DA
:10149000640A1A40002032E78023DB031C43640205
:1014A000640A5246FF202AE7B0180008F018000826
:1014B000FFFFFFF7430270B542004C005D0AC30F07
:1014C0004802120E460A240EC90FFF2A0FD0FF2C25
:1014D00011D00120A24200D070BDB542FCD18B4298
:1014E0000DD0002AF8D12800431E9841F4E70120CE
:1014F000002DF1D1EBE70120002EEDD1E9E700202E
:10150000EAE7C0464302F0B542005D0AC30F480255
:10151000440A4800120E000EC90FFF2A1FD0FF28F0
:1015200022D0002A09D16E426E4100280FD1002C32
:101530000DD10020002D09D005E0002801D1002C9C
:1015400001D08B4213D0584201231843F0BD002E26
:10155000F7D048424141012049420843F6E7002DB7
:10156000DDD002204042F1E7002CDAD0F9E78242D8
:10157000E9DC04DBA542E6D80020A542E6D25842C9
:10158000434101205B421843E0E7C0464302F0B507
:1015900042004C005E0AC30F4802120E450A240E98
:1015A000C90FFF2A17D0FF2C19D0002A0BD1704287
:1015B0007041002C17D0002807D04842414101203B
:1015C00049420843F0BD002C13D08B4214D058423E
:1015D00001231843F6E70220002EF3D1E3E70220AF
:1015E000002DEFD1E1E7002DE5D10020002EE9D05C
:1015F000EDE7002DE9D1EAE7A242E8DC04DBAE42E8
:10160000E5D80020AE42DDD25842434101205B4282
:101610001843D7E74302590A4300C20F1B0E0020AC
:101620007E2B0EDD9D2B0DDC802000040143952BCD
:101630000BDC9620C31AD9400B005842002A00D177
:1016400018007047034BD018FBE7963B99400B00FE
:10165000F3E7C046FFFFFF7F70B5041E28D000F0FF
:1016600039F89E231B1A962B0ADC9622D21A944034
:101670006202520AD8B25202520AC005104370BD2B
:10168000992B18DC9922D21A9440114A2240610702
:1016900004D00F210C40042C00D00432510103D59A
:1016A0000B4B1A409F231B1A9201520AD8B2E2E751
:1016B00000200022DFE705222500121AB921D540BB
:1016C0002200C91A8A40541EA2412C001443DCE7B0
:1016D000FFFFFFFB1C2101231B04984201D3000CD8
:1016E00010391B0A984201D3000A08391B09984295
:1016F00001D30009043902A2105C40187047C046AB
:1017000004030202010101010000000000000000CA
:10171000000000003200000064000000960000009D
:10172000C8000000F9000000290100005901000074
:1017300088010000B6010000E30100000E02000075
:1017400039020000620200008A020000B0020000BC
:10175000D4020000F7020000180300003603000066
:10176000530300006E030000870300009E03000087
:10177000B2030000C4030000D4030000E103000032
:10178000EC030000F5030000FB030000FF03000072
:10179000000400001A0600081A0600086E0500087A
:1017A0007805000884050008900500089A050008DF
:1017B000AA050008BC050008DC050008E8050008CB
:1017C000F80500081A0600081A0600081A0600089C
:1017D0001A0600081A0600081A0600081A06000869
:1017E0001A0600081A0600081A0600081A06000859
:1017F0001A0600081A0600081A0600081A06000849
:101800001A0600081A0600081A0600081A06000838
:101810001A0600081A0600081A0600081A06000828
:101820001A0600081A0600081A0600081A06000818
:101830001A0600081A0600081A0600081A06000808
:101840001A0600081A0600081A0600081A060008F8
:101850001A0600081A0600081A0600081A060008E8
:101860001A0600081A0600081A0600081A060008D8
:101870001A0600081A0600081A0600081A060008C8
:101880001A0600081A0600081A0600081A060008B8
:101890001A0600081A0600081A0600081A060008A8
:1018A0001A060008040600080D0A00002D000000BA
:1018B000D2130008F6120008B41300088C130008B5
:1018C000B413000880130008B41300088C13000838
:1018D000F6120008F6120008801300088C130008A6
:1018E000381400083814000838140008BA13000827
:1018F000F6120008F6120008A01300088A13000868
:10190000A013000880130008A01300088A13000821
:10191000F6120008F6120008801300088A13000867
:10192000381400083814000838140008441400085B
:101930003200320080BB0000FFFFFF00E803000020
:0819400000127A0000127A0087
:0400000508000E657C
:00000001FF
